:02000002F0000C
:1040000000000420B59D0F00DD9D0F00DF9D0F0017
:10401000E19D0F00E39D0F00E59D0F0000000000F3
:10402000000000000000000000000000D14A0F0066
:10403000E99D0F0000000000EB9D0F00ED9D0F00BB
:10404000514C0F00EF9D0F00EF9D0F00EF9D0F00F3
:10405000EF9D0F00EF9D0F00EF9D0F00EF9D0F00F4
:10406000EF9D0F00EF9D0F00EF9D0F00EF9D0F00E4
:10407000EF9D0F00EF9D0F00EF9D0F00EF9D0F00D4
:10408000EF9D0F00D16E0F00EF9D0F00EF9D0F0011
:104090008D6F0F00EF9D0F00B1470F00EF9D0F00D8
:1040A000EF9D0F00EF9D0F00EF9D0F00EF9D0F00A4
:1040B000EF9D0F00EF9D0F000000000000000000CA
:1040C000EF9D0F00EF9D0F00EF9D0F00EF9D0F0084
:1040D000EF9D0F00EF9D0F00EF9D0F00C5870F00B4
:1040E000EF9D0F00EF9D0F00EF9D0F0000000000FF
:1040F00000000000EF9D0F0000000000EF9D0F008A
:1041000000000000000000000000000000000000AF
:10411000000000000000000000000000000000009F
:10412000000000000000000000000000000000008F
:10413000000000000000000000000000000000007F
:10414000000000000000000000000000000000006F
:10415000000000000000000000000000000000005F
:10416000000000000000000000000000000000004F
:10417000000000000000000000000000000000003F
:10418000000000000000000000000000000000002F
:10419000000000000000000000000000000000001F
:1041A000000000000000000000000000000000000F
:1041B00000000000000000000000000000000000FF
:1041C00000000000000000000000000000000000EF
:1041D00000000000000000000000000000000000DF
:1041E00000000000000000000000000000000000CF
:1041F00000000000000000000000000000000000BF
:1042000010B5054C237833B9044B13B10448AFF310
:1042100000800123237010BD648100200000000095
:1042200070AD0F0008B5034B1BB103490348AFF352
:10423000008008BD000000006881002070AD0F0004
:10424000154B002B08BF134B9D46A3F5803A002168
:104250008B460F461348144A121A00F063F80F4BAE
:10426000002B00D098470E4B002B00D09847002021
:10427000002104000D000D48002802D00C48AFF3C7
:10428000008000F02BF82000290000F0DBF800F09F
:1042900011F800BF0000080000000420000000002A
:1042A00000000000648100200CBF0020000000001E
:1042B0000000000008B5074B044613B10021AFF31E
:1042C0000080054B1868836A03B19847204600F0C8
:1042D00031F800BF0000000034AA0F0070B50D4E89
:1042E0000D4CA41BA4100025A54209D10B4E0C4C6B
:1042F00006F094FBA41BA4100025A54205D170BDB7
:1043000056F8253098470135EEE756F8253098479E
:104310000135F2E75C8100205C8100205C81002097
:104320006081002002440346934200D1704703F8A5
:10433000011BF9E7FEE700BFBFF34F8F0549064BAE
:10434000CA6802F4E0621343CB60BFF34F8F00BF33
:10435000FDE700BF00ED00E00400FA054BDF704709
:1043600010DF704711DF704713DF704718DF7047A9
:1043700060DF704769DF704761DF7047054BD3F836
:10438000103500F01F0023FA00F0C04300F00100D8
:10439000704700BF0003005008B5034B1B68DB07E4
:1043A00000D500BEFFF7C8FFF0ED00E01F2886BF74
:1043B00000F01F00044A4FF0A042012303FA00F06E
:1043C000C2F80805704700BF000300501F2886BFD1
:1043D00000F01F00044A4FF0A042012303FA00F04E
:1043E000C2F80C05704700BF00030050014B18785D
:1043F000704700BF818100201FB5002304A8CDE9CC
:1044000001330393022340F8103DFFF7AFFF05B0DF
:104410005DF804FB08B5012000F0C6FA0C20FFF798
:10442000D5FF4FF46D2000F06BFC43F208031868D1
:1044300000F066FC002000F0B7FA0C20BDE8084050
:10444000FFF7B4BF2DE9F0474FF0804386B0D3F8B3
:104450001C95D3F81C25A9F1B10467426741B12A24
:1044600000F02A81D3F81C45A4F1A800444244413D
:104470009A4D9B4E04F001032B704FF08043D3F80C
:104480001C857CB9B8F14E0F0CD0D3F81C25572AE7
:1044900008D032681168934A914209D1D3F80034A8
:1044A000D90705D54FF080430022C3F81C2501240D
:1044B0008D4B8E4AC3F840258D4B1B68B3F5742F86
:1044C00002D0002003F01CF800F0CCF900F05CFDF5
:1044D00000F0CEFD48B100F0DDFD08B103F010F8AA
:1044E00000F0FEFD08B103F00BF81CB92620FFF721
:1044F00045FF04462B78002B40F0E0802620FFF794
:104500003DFF10B12A20FFF739FF00F0010043F210
:1045100008032870186800F07FFC824674B968B1FF
:104520003368704A1A600620FFF750FF714B7248DB
:1045300043F0010398470620FFF738FF3368002255
:104540001A601CB9BAF1000F40F097802C78002C4B
:1045500000F0BA800C2000F04FF9B9F1B10F01D092
:10456000FFF74AFF4FF47420FFF7FEFE08B102F098
:10457000C7FF624B62491868019001A8FFF7F0FE7F
:1045800008B102F0BDFF5F4991F816335A09EC23D8
:104590001341DA0708D55C4B9A68002A00F0908036
:1045A0001A6842F480021A600C22584B02930021D0
:1045B0000DEB0200FFF7B6FE40F20113029A0393DF
:1045C00003A94020FFF7D6FE08B102F099FF0C22A4
:1045D00000210DEB0200FFF7A5FE9DF80C30029ABA
:1045E00043F0010303A9A0208DF80C30FFF7C2FEB1
:1045F00008B102F085FF0C2200210DEB0200FFF74D
:1046000091FE01238DF80C30029AF72303A9232091
:10461000ADF80E30FFF7AEFE08B102F071FF0C22CC
:1046200000210DEB0200FFF77DFE01238DF80C3019
:104630008DF80E30029A062303A92020ADF8103021
:10464000FFF798FE08B102F05BFF02A8FFF790FEAB
:1046500008B102F055FF27460021287800F0ACFC95
:1046600008B102F04DFF2B78ABB30C2000F038F905
:104670000C20FFF79BFEFFF775FE2620FFF77EFE5E
:1046800028B92A20FFF77AFE08B1FFF7C3FE00F031
:104690004BF943F20803186800F0BEFB50B100F07C
:1046A000E7FC38B90FB9FFF7A7FE43F20803186813
:1046B00000F0B6FCFFF740FE0124D9E6012024E714
:1046C0004FF480030B606FE7A8F14E035842584146
:1046D00003F0C2FBC0E703F025FCCEE78181002098
:1046E00064800020D51A5A0000A000400000010696
:1046F0001410001040AA0F000048E80138AA0F006B
:1047000099430F0000E100E07CBC00200080002005
:1047100010B5FEB04FF4FA730DF1020101A8ADF827
:104720000230FFF729FE044640B9BDF80430102BD3
:1047300007D0112B0FD001A800F056FF20467EB005
:1047400010BD084B01220C201A7000F00DF90C204E
:10475000FFF73CFEEFE7034B18700C2000F014F954
:10476000E9E700BF8081002013B501A8FFF7F6FD3F
:10477000044660B9019801F073FE019B0A2B09D031
:10478000092B09D00B2B02D1012004F09BF9204604
:1047900002B010BD2046F8E70220F6E708B5FFF7A3
:1047A000B7FF0528FBD1FFF7DFFF0528F7D108BDCC
:1047B0000021024A084602F00BBE00BF9D470F00D1
:1047C0001F2886BF00F01F00044A4FF0A0420123BB
:1047D00003FA00F0C2F80805704700BF000300505C
:1047E00008B502F0CBFD4FF47A72A0FB0223D00B88
:1047F00040EA434008BD0000164A174B062818BF80
:10480000134646F2A8114FF0010230B5C3F8042553
:10481000124DC3F808154FF00701C3F80C154FF0FF
:104820000201C3F810150E4C4FF0000118BF2C46C2
:10483000C3F81415C3F820450424C3F82445C3F86D
:104840002815C3F82C15C3F86005C3F800259A6035
:1048500030BD00BF0010024000C001406880002051
:104860007080002008B54FF080430122C3F818255E
:104870009A6003F58033D3F800240AB100221A604D
:10488000134B144AC3F81827C3F82827124B4FF4C8
:10489000C85043F0010398474FF0A0430322C3F8E8
:1048A00018270620C3F83027FFF78AFF0C20FFF7F0
:1048B00087FF0620FFF7A0FF084A1E21082002F00C
:1048C00063FD08B102F01CFEBDE8084002F0C0BC68
:1048D000000300500C00030050AA0F008481002048
:1048E0000F4B104A06280CBF1846104600234FF005
:1048F000FF328360C0F80035C0F8602540F2FF3217
:10490000C0F80435C0F80825C0F80C35C0F81035DB
:10491000C0F81435C0F82035C0F82435704700BF02
:1049200000C001400010024008B50620FFF7D8FF84
:104930000C20FFF745FF0620FFF742FF094B4FF41D
:104940000032C3F8802003F1C04303F53C534FF419
:104950008032C3F84823C3F8082301225A609A60C2
:1049600008BD00BF00E100E0054B064A06280CBF69
:104970001846104600238360C0F80035704700BF1A
:1049800000C0014000100240054B064A06280CBF3B
:10499000184610460123C0F800358360704700BFF9
:1049A00000C0014000100240034B18B10022C3F8C0
:1049B000042570470122FAE700C0014011DF70476B
:1049C00010B5114C236801331CD0104B1A7832B14A
:1049D00000221A70FFF7F2FF0120FFF7E5FF4FF406
:1049E000805221680A4805F083FB40B1206800F03E
:1049F00087F94FF480620649206800F099F94FF07A
:104A0000FF33236010BD00BF7C8000207880002031
:104A1000748300202DE9F0410E4E20F47F6433684A
:104A200024F00F04A34205460F46904608D0FFF736
:104A3000C7FF4FF4805221460748346005F067FBFA
:104A40000548C5F30B05424639462844BDE8F04108
:104A500005F05DBB7C8000207483002070B50D0BD9
:104A6000C1F30B01064601B101350024A54200D176
:104A700070BD06EB043000F043F90134F6E70000A6
:104A800038B50C46F8B90968D9B1104A91421546B3
:104A90000CD0531A3B2B12D93C22284605F037FB89
:104AA00004E0C85CD05413F1FF33FAD200223C2159
:104AB000064802F06DFD0023A887236038BD3D2322
:104AC000F1E70E23F9E70123F7E700BF807F00201D
:104AD0006FF00203064A9E4502D1EFF3098101E01F
:104AE000EFF308818869A0F102000078104700BF49
:104AF000814A0F0038B50546A8B10D4C00223C2173
:104B0000204602F045FDA38F83420ED1224604F1D8
:104B10003C0152F8040B45F8040B8A42F9D10133E9
:104B2000A387002038BD0E20FCE70B20FAE700BF6A
:104B3000807F00200B2970B50446154630D90389C3
:104B4000053300EB43030144CA1AD2B2012A27D924
:104B50008B4225D81946134805F0D9FA2388522BE1
:104B600006D1AB0711D062884CF668639A420CD02C
:104B70000F2014E034F8022B824204D02E88964293
:104B800003F1010308D1002009E0218900230A3440
:104B90004FF6FE7043F20C059942EBD80B2070BD26
:104BA0000920FCE77493002008B5002202F0F0FC15
:104BB000044A5178137843EA0123984214BF0B202A
:104BC000002008BD7493002000F180431A68002A79
:104BD0001BBF0022012000201A6070470F4B1A787B
:104BE000D2B902784FF08041C2F34002C1F880256B
:104BF000027802F00102C1F87825094A1168C90754
:104C000006D4E02182F800130121C2F8801111605E
:104C100001221A70034870470348704778BC00208F
:104C200000E100E00000AD0B0C00AD0B034B0022D7
:104C30001A60026802B11A60704700BF88930020B2
:104C40004FF080434FF46072C3F8042370470000B4
:104C500010B54FF08043D3F80443620707D54FF4F3
:104C60008470FFF7B1FF10B11E4B1B689847A30675
:104C700008D54FF48A70FFF7A7FF18B11A4B002030
:104C80001B689847600608D54FF48C70FFF79CFFAF
:104C900018B1154B01201B689847210608D54FF421
:104CA0008E70FFF791FF18B1104B00201B689847DA
:104CB000E20508D54FF49070FFF786FF18B10B4B53
:104CC00001201B689847A3050AD54FF49270FFF79F
:104CD0007BFF28B1054B02201B68BDE81040184738
:104CE00010BD00BF80930020849300208893002093
:104CF000024AD2F80034002BFBD0704700E001409C
:104D00000A4908B50223C1F80435BFF36F8FBFF31A
:104D10004F8FC1F80805FFF7EBFF0023C1F80435FA
:104D2000BFF36F8FBFF34F8F08BD00BF00E001409E
:104D30000E4B10B50124C3F80445BFF36F8FBFF3CA
:104D40004F8F01EB8204401AA14208D1074B002289
:104D5000C3F80425BFF36F8FBFF34F8F10BD431807
:104D600051F8042B1A60FFF7C3FFEDE700E00140A4
:104D700011DF704713DF7047064B1878012803D105
:104D8000012904BF0221197012B1104602F0B8BB0C
:104D9000704700BFB893002038B5084D02F07EFB85
:104DA000FFF724FB044620B905F000F8204604F084
:104DB000F9FA2B78023B022BF0D838BDB8930020CB
:104DC00008B5FFF713FB88B11C21104801F0E4FB84
:104DD00008B102F095FB00231C220D490B4801F09D
:104DE000CBFB88B1BDE8084002F08ABB1C22084911
:104DF0004FF47F20FFF70EFEFFF7E2FD054B1A7818
:104E0000012A04BF02221A7008BD00BFB09300201F
:104E1000BC930020B893002007B50368013303D189
:104E2000002003B05DF804FB01A800F087F9019BA6
:104E30001A88012AF4D1588830B1996843F20803DE
:104E40000022186802F0A4FB019B5B881B1A5842E1
:104E50005841E6E784B02DE9F34108AC84E80F003F
:104E60009DF82040BDF822800B9D01A8DDE9097660
:104E700000F064F954B9384B0122FF21A3F80280F5
:104E80009D601A809980354B1A7012E0012C17D161
:104E9000314BBA192A449A60A5221A80FF229A80BF
:104EA0000C9AA3F80280C3E903765D619A612B4BEB
:104EB0001C70FFF785FF02B0BDE8F04104B07047F9
:104EC000032C0FD1019A244B1188198051889268C4
:104ED0009A60C3E90376AA2259809A805D611F4BCC
:104EE0000122D1E7022C15D1019A1B4B1188A5296B
:104EF0000AD100229A60FF221A60FF229A800022C3
:104F0000C3E903225A61EAE71980518892685980FF
:104F10009A60F2E7052C0ED1FFF768FA40B100F075
:104F200061FD08B102F0ECFA0C4B03221A70C2E7E3
:104F300000F0F8F9F5E7042C08D1074B00229A603D
:104F4000FF221A60019A92889A80B2E7062CB2D1A9
:104F5000024B0422EAE700BFBC930020B893002074
:104F600000B5084B1B7889B043B905238DF80C3088
:104F7000079B009303AB0FCBFFF76CFF09B05DF805
:104F800004FB00BFAC9300201FB50023CDE9023322
:104F9000074B019301F0B8FA30B906494FF47F236B
:104FA00001A84B6001F0D4FA05B05DF804FB00BF26
:104FB000794D0F00B093002070B505460E4600F005
:104FC00093FF044628B935B100F03EFC0446FFF7D4
:104FD000E3FE204670BDBEB10D4B0E4A0E481D705B
:104FE000294602F065F94FF400444FF4FA700021AD
:104FF0004FF47A720023E4FB060104F0F9FE2A461E
:105000000146064802F066F900F068F9DEE700BFE5
:10501000AC930020614F0F0058AA0F008C93002022
:1050200038B5FFF7A5FE08B102F06AFA0F490D681E
:105030000023012404FA03F22A4207D05A0903F09C
:105040001F00203204FA00F041F822000133302B17
:10505000F0D143F208042068FFF78CFE08B102F09B
:105060004FFA2068BDE8384000F06EB800E100E07B
:1050700007B501A800F062F8019B1A88A52A07D09D
:105080009888A0F1AA035842584103B05DF804FB88
:105090000120FAE710B501F03EF9A8B10E4B0F4818
:1050A00043F00103984701F0B7F808B102F028FA7D
:1050B00001F031F908B102F023FA01F0F5F80446E5
:1050C00038B102F01DFA04E001F008F904460028A6
:1050D000E4D1204610BD00BF60AA0F0000A8610007
:1050E00000B589B003AB142200211846FFF71AF966
:1050F00002228DF80C20002200920FC8FFF7AAFEB2
:10510000FFF74AFE002009B05DF804FB13B5044622
:1051100001A800F013F8019B1A8822805A88628047
:105120009A68A2609A88A280DA68E2601A692261AD
:105130005A6962619B69A36102B010BD014B0360B3
:10514000704700BF00F00F00F0B50346186880F309
:1051500008885868FF2464B2EFF30585002D01D15B
:10516000A64600472546064621273FBAF0B400244C
:10517000002500260027F0B4F92040B2004700BF08
:10518000F0BD00BF73B500230DF1020101A8ADF819
:105190000230019302F034FEF8B9019C25785DB32A
:1051A000174B93F83020032A28D00C2606FB00F278
:1051B0009958E9B998189D5093F830200132D2B22D
:1051C00083F83020BDF802300E4A9B08013B0434BE
:1051D00043608460084602F0FBF8019B33B128B1BC
:1051E000184602F029FE08B102F08AF902B070BD3B
:1051F00001300428DAD1F0E70720EEE70420ECE7DD
:10520000D89300204D520F0011B1084602F078B932
:105210007047000010B50C230B4A4343D418D158F3
:1052200081B192F83010A0680139C9B282F830100B
:105230000021D150C4E90111043802F0FDFD08B18C
:1052400002F05EF9002010BDD8930020F8B5214B84
:10525000214E01221A7035460C2796F8303003B9DA
:10526000F8BD002407FB04F3EA5882B1013AE818BC
:10527000042A06D8DFE802F019050F03240000F025
:10528000D5FEE0B2FFF7C6FF08B102F039F90134EC
:10529000042CE7D1E1E72B449A685A6000F070FED5
:1052A0000028EED002F02CF9EBE700F03BFF00F015
:1052B00017FF08B102F024F90120FFF775FBE0E7C2
:1052C00000F060FF00F082FF0020BDE8F840FFF72B
:1052D0006BBB00BFAC930020D893002008B50E4BE9
:1052E000002283F8302003F130011A60C3E9012263
:1052F0000C338B42F9D1094800F03CFE02F018FD56
:1053000008B102F0FDF8064802F0FEFC08B102F018
:10531000F7F8002008BD00BFD893002009520F0005
:1053200085510F0008B50020FFF774FF0120FFF73B
:1053300071FF0220FFF76EFF0320FFF76BFFBDE850
:10534000084002F03DBD006870476CDF70476DDFBC
:1053500070476EDF70476FDF704772DF704773DF33
:10536000704774DF704776DF704777DF70477ADF0A
:1053700070477CDF70477FDF704786DF704790DFC4
:105380007047AFDF7047B0DF7047B1DF7047B2DF03
:105390007047B5DF704764DF704766DF70470C28E1
:1053A00013D8DFE800F014121212121209120712B9
:1053B000120D0B0002207047032070470420704735
:1053C00004290CBF052006207047062070470120E5
:1053D000704702F095B810B5044608460321FFF760
:1053E000DEFF03210246204601F0A0FA18B1BDE815
:1053F000104002F085B810BD032810B50B461446C6
:1054000020D0042825D169B1124B18884FF6FF73BC
:1054100098421ED01321FFF7A6FFD0B1BDE810407F
:1054200002F06EB8104602F00FF908B102F068F809
:10543000094B1B689C420CD101220321074801F053
:1054400075FAEAE701211846FFF7A9FF0121024694
:10545000F4E710BD82800020CC9400207C940020D2
:10546000F8B50A4CA3889E181D2E15460DDC27683A
:10547000FE1802F1010C07F803C07070B01C04F0B4
:1054800046FEA28802322A44A280F8BD2C94002055
:10549000F0B54A4D2C7893B0002C40F08A80484EED
:1054A000102221463046FEF73DFF464B336018225E
:1054B00021460CA8FEF736FF28230E93424B1B789B
:1054C00001278DF8307006AE002B74D021463F4C7A
:1054D000102202A8FEF726FF102202A9E01D04F008
:1054E00007FE002867D03A4839460460FFF731FFCD
:1054F00008B102F005F8374B374603F1100C186875
:1055000059683A4603C2083363451746F7D1206805
:10551000A2880A903048A379ADF82C2000210122FE
:105520008DF82E300660FFF716FF08B101F0E8FF96
:1055300003238DF8443004238DF8063041F23053B4
:10554000ADF80830254B32469B798DF80A300DF1C5
:10555000070102A8FFF71FFF012210460DF1060107
:10556000FFF77EFF1E4804F017FE1D49C2B2092056
:10557000FFF776FF102231460620FFF771FF0CAAD5
:105580000F491848FFF7E9FE08B101F0B9FF154CC3
:10559000042221780120FFF7E8FE08B101F0B0FFF6
:1055A00001212078FFF7DBFE08B101F0A9FF0123FC
:1055B0002B7013B0F0BD0623BEE700BFB0940020EF
:1055C0002C9400200C940020789400203C9400201F
:1055D000C894002043940020AC9400207C940020C8
:1055E00066AA0F0080800020F0B504460146B1B0E5
:1055F0008B4801F0CFF923881A2B4AD01DD8112BE4
:105600007AD006D8012B00F0D280102B6DD031B0AB
:10561000F0BD132B00F08D80142BF8D1814A258A20
:10562000518D02F1180000238D420CBF014619462E
:105630000732A088FFF7A1FEA8E0512B00F0BD8043
:105640001FD8232B00F0DB80262BE0D1237A012BFF
:10565000DDD1754B00221A70744B1968013919603D
:10566000002940F0A18010AB14221846FEF75AFE24
:1056700005228DF84020149A00920FC8FFF7EAFB2C
:10568000C5E7552B00F0C280562B00F08380522BCB
:10569000BDD1674B1C884FF6FF75AC4200F0AB8064
:1056A000644B1B78002B00F0A08001230822624984
:1056B0002046FFF76AFE002840F09E800246014621
:1056C00002232046FFF761FE002840F095802A461D
:1056D0000C212046FFF755FE43F20203984296D074
:1056E000082894D0112851D191E7514BA2881A80F3
:1056F0004D4B00221A708AE730AD802325F89C3D7F
:105700004B4C4A4B322200201A60FFF74DF901231F
:105710002A4610A92088FFF73AFE08B101F0F0FEF2
:10572000464B1B780BB9FFF7B3FE4FF6FF73238090
:105730006DE73C4B03AC9A79186899888DF8222064
:105740000790DA1DADF8201017332646106851680F
:10575000254603C508329A422C46F7D1384B09AA90
:1057600003F11807154618685968144603C408332E
:10577000BB422246F7D1186820602D48314A008884
:1057800010AB8521CDE91456FFF7F5FD00283FF455
:105790003EAF31E0A379002B7FF439AF244B1321C6
:1057A0001888FFF7E0FDF1E7FFF772FE2FE7204BC7
:1057B00000211888FFF7F1FDE8E7A379002B3FF4FB
:1057C00026AFA27B043A022A3FF621AF022B18BF74
:1057D00001238DF840304FF4C173ADF84430144BC1
:1057E00010A91888FFF7CFFDD0E71A4619462046C2
:1057F000FFF7CBFDCAE7082001F082FE07E70C4B5C
:10580000002211461888FFF7BAFDBFE7E188084B70
:10581000F72928BFF7211888FFF7BBFDB6E700BFBF
:105820007C9400203C940020B094002084800020D0
:10583000828000207894002070940020C39400207F
:1058400054940020BE940020F0B5574A57480023D6
:105850001370574AA1B0137000F08CFB01F0B4FE36
:105860000546002840F086805248FFF743F900289B
:1058700040F08380504B01221A7020AC11234F4816
:1058800004F8603D04F088FC4C4982B22046FFF7E2
:1058900070FD08B101F034FE0822002110A8FEF7C7
:1058A00041FD474A4FF0C87310A8CDE91023FFF718
:1058B0005EFD08B101F024FE00210C2205A8FEF7D0
:1058C00031FD0823ADF814303E4B069305A93E4B3D
:1058D0003E48079300F078FE08B101F011FE402227
:1058E0003B4E00210DEB0200FEF71CFD304604F09C
:1058F00053FC1196374EADF84000304604F04CFC96
:105900004FF44053ADF8480013961B78102B48D93C
:1059100043F21002142B126844D943F2140318689E
:105920002D49B0FBF1F3002602964FF47A76B0FBD6
:10593000F6F706FB170701FB13010197B1FBF6F120
:1059400020460091254904F007FC204604F024FC81
:105950001123ADF8600010A8ADF87C30199401F067
:1059600033F91F4B30221A7007225A7010229A7096
:10597000FFF78EFD284621B0F0BD10A8FFF7E7FC29
:1059800008B101F0BDFD9DF8413010A801338DF83C
:105990004130FFF7DAFC00283FF46FAF01F0B0FDB3
:1059A0006BE700220020BBE7C3940020F9530F00EF
:1059B000BD9400203C9400207894002066AA0F003B
:1059C00008001800355A0F00D3530F007C940020B4
:1059D0006DAA0F0074AA0F0040420F007DAA0F00AD
:1059E000BE94002010B50F4B01221A700E4B188880
:1059F0004FF6FF73984207D01321FFF7B4FC08B1AC
:105A000001F07EFD002010BD084C2278002AF9D05C
:105A1000074B1878FFF7A5FC08B101F071FD0023D2
:105A20002370EFE7C394002082800020B094002010
:105A300080800020F0B50B7889B005460C46092B14
:105A400023D8DFE813F02B00330042000A001800CF
:105A50002400FD00060145000B0100F093FB04212A
:105A6000FFF79DFC04210246284600F05FFF60B16D
:105A700001F046FD09E0FFF7B5FF08B101F040FD78
:105A800000F0A4FB08B100F0B9FB09B0F0BDFFF7CE
:105A9000A9FF0028F7D001F033FDF4E7724B012293
:105AA0001A704B681A78714B1A70EEE76E4B02262B
:105AB0001E704B681B78012BE7D100F011FB3146BB
:105AC000FFF76DFC02463146CEE7674B0322EBE75A
:105AD0000120FEF769FF644B1E78022E2AD0032EA8
:105AE0004ED0012ED1D104AB102218460021FEF772
:105AF00019FC5E4A237A12788DF810200022039256
:105B00000C2B4FF00302CDE90120DCD1636818466D
:105B1000FFF719FC0590181DFFF715FC069003F11F
:105B20000800FFF710FC079001A800F029FA0028F0
:105B3000ABD0C4E7237A13F003010FD00022C1F1E8
:105B40000401944698181646C0B267680132914223
:105B500007F800C0F6D101333344237201230493C4
:105B600063680693237A04A89B08059300F0DAFA89
:105B700000288AD00221FFF712FC0221024673E7B7
:105B8000207A830702D0324631466DE7384E0190C5
:105B9000314601F02FFD014618B12846FFF71BFCE6
:105BA00073E76168019A306804F0B1FA019801F076
:105BB00089FD01460028F0D101A9304601F092FD8F
:105BC00001460028E9D104230493019B9B08059317
:105BD00004A83368069300F029FA074640B9254A1D
:105BE000237A11680B441360234B32681A604CE728
:105BF00009281BD11F4B217A1A68114419601F4BC9
:105C00001B78002B3FF441AF1D4C2388013B9BB216
:105C10002380002B7FF439AF284600F04DFE08B1F9
:105C200001F06EFC174B1B8823802EE7306801F0D3
:105C30000BFD014610B12846FFF7CDFB3946ACE716
:105C40000E4B01221A700F4A8B8813800C4A138066
:105C50001BE70A4A002313700A4AF8E7054B196844
:105C600000F0EEFD03E700BFBD940020C4940020C7
:105C7000D0940020B4940020CC940020BC94002048
:105C8000BA940020B894002018DF70470129F8B5B5
:105C90000D4614461F4607D0032912D014B32046E0
:105CA000BDE8F84001F02CBC0F4B1B78052BF5D15B
:105CB0000E4B1B68002BF1D03A4621460420984732
:105CC000ECE7094E3378022BE8D1094B5B68984723
:105CD000064B35701E68002EE0D03A462146284615
:105CE000B047DBE7F8BD00BFDC940020D49400206F
:105CF0000095002000B5084B89B001221A700523D9
:105D00008DF80C30079B009303AB0FCBFFF7A2F885
:105D100009B05DF804FB00BFDD94002000B589B038
:105D200003238DF80C300A4B1B88ADF80E30094B5D
:105D30005A6804929A68DB680693079B0093059261
:105D400003AB0FCBFFF786F8002009B05DF804FB2A
:105D50000C9500205895002000B589B001238DF8DE
:105D60000C300B4B1B88ADF80E3043F208031A6859
:105D7000084B596804919968DB6806930591009275
:105D800003AB0FCBFFF766F8002009B05DF804FB0A
:105D90000C9500205895002000B589B003AB142263
:105DA00000211846FEF7BEFA04228DF80C200022CE
:105DB00000920FC8FFF74EF809B05DF804FB000031
:105DC00030B589B003AC142200212046FEF7AAFAB0
:105DD000094B1B88ADF80E30084BDB680693002595
:105DE000079B8DF80C50009394E80F00FFF732F8F2
:105DF000284609B030BD00BF0C9500205895002002
:105E0000114B37B5114C1C60114B02221A70FEF772
:105E1000EDFA104B0546196840B1204600F0BCFB76
:105E200080B103B0BDE8304001F06ABB43F2080323
:105E30001868FEF713FE00952B462A4603212046DC
:105E4000FFF724FF03B030BD709500206895002057
:105E5000DC9400201095002010B50B4B1B788BB9FB
:105E60000A4801F07BFA08B101F04AFB00224FF426
:105E70001601064801F02EFA044608B101F040FB75
:105E8000204610BD0824FBE7DD940020E0940020AC
:105E90007FB50C4603210546CDE9001096086846FB
:105EA00002940396FFF7F0FED8B1B4F5805F11D8E5
:105EB00001236846CDE90035CDE90246FFF7E4FE4F
:105EC00078B903236846CDE90035CDE90246FFF7EE
:105ED000DBFE06E01A46E11AE81AFFF7D9FF0028B0
:105EE000E6D004B070BD0000F0B585B004A8184B32
:105EF00040F80C3D174B184F184E00241C70184BDF
:105F00003946CDE902441C8000F022FB054618B159
:105F10003470284605B0F0BD43F2080301461B6803
:105F2000104A11487B6001F0C3F908B101F0E8FAAA
:105F300000224FF416010D4801F0CCF908B101F030
:105F4000DFFA0B4B00221A6001233370E1E700BF38
:105F50008D5C0F005495002068950020DC94002093
:105F60000C950020F55C0F0094AA0F00E09400202F
:105F7000D8940020014B1860704700BFD4940020D3
:105F800070B54368204C0FCB84E80F00227851078E
:105F900001D5930731D163689E072ED1A1688D0783
:105FA0002BD1E068840728D10B44184E0344B1F587
:105FB000304F336023D843F208010968C1F56D21E1
:105FC0008B421CD8124D134B2B60D107124B6B60C8
:105FD0000ED5124BAB60124B1B78012B11D1FFF782
:105FE0003BFF044610B92B6830689847204670BDC7
:105FF00093074CBF0B4B0C4BECE70624F6E70C2445
:10600000F4E70824F2E700BF58950020109500201F
:1060100000950020015E0F00995D0F00595D0F0093
:10602000DC9400201D5D0F00C15D0F002DE9F843D9
:106030008046002843D083689B0742D1244B1B78BD
:10604000052B40D1234F4468234E3B683268A4009F
:1060500023449342B94606D94FF0FF333B600C25E9
:106060002846BDE8F883FFF7F7FE05460028F7D17C
:10607000D8F80880FEF7BAF948B118483B680068BC
:106080002246414600F078FA50B10546E8E743F26F
:106090000803224618683B6841461844FEF7BAFCDC
:1060A000D9F800301C443368C9F800409C420CD138
:1060B000FEF79CF90028D3D1FEF782FCD0E70E252D
:1060C000CEE71025CCE70825CAE70925C8E700BFB9
:1060D000DC940020D89400201095002070950020BA
:1060E00070B50B4B1D6885B90A4E3378042B0CD163
:1060F000094C0A4B21781A780948FEF71BFD10B9A4
:106100000523337070BD2570FCE70820FAE700BF57
:10611000D8940020DC94002054950020589500204D
:1061200014950020F8B5134B1A78032A074603D0BC
:10613000042A03D0082419E004221A700E4B1B68AD
:10614000002BF7D1FFF788FE044678B90B4E7D6827
:106150003378AD005A19402A0AD80948B9682A4646
:10616000184403F0D4FF33781D4435702046F8BD41
:106170000924FBE7DC940020D894002054950020EB
:106180001495002038B50D4C2378052B14D10C4BF9
:106190000C4D1A682B689A420ED106232370FFF724
:1061A0005BFE40B9084B29681B685868FEF7FCFC89
:1061B00008B90723237038BD0820FCE7DC940020D1
:1061C000D8940020109500207095002010B5084B41
:1061D0001B78072B0AD1074801F0C0F808B101F07D
:1061E0008FF9054BBDE810409B681847082010BD8B
:1061F000DC940020E09400200095002000B589B0D8
:1062000006238DF80C30079B009303AB0FCBFEF7F2
:1062100021FE09B05DF804FB10B58CB005A8FEF7AF
:1062200075FF089A002A3BD00B9C02F58053A342CD
:106230002AD91C49A4F5805301EA530343F208010B
:1062400009688A4208D85800121A00F58051204483
:10625000FFF71EFE0CB010BD03F580500121CDE903
:106260000110CDE9030101A8FFF70EFD0028F1D1CF
:106270004FF48050CDE9020001A801910491FFF78D
:1062800003FD0028E6D1DEE70123CDE901349208C1
:106290004FF4805301A803930492FFF7F5FCD9E76C
:1062A0001046D7E700F0FFFF00B58DB005A8FEF758
:1062B0002DFF099860B1089B6BB943F208031B6876
:1062C00080080022039001A8CDE90123FFF7DCFC40
:1062D0000DB05DF804FB0B9A1344F1E700B58DB0E7
:1062E00005A8FEF713FF099878B1089B83B943F21C
:1062F00008031B680393800803214FF47422049061
:1063000001A8CDE90112FFF7BFFC0DB05DF804FB59
:106310000B9A1344EEE730B58DB005A8FEF7F6FEF4
:106320000898A0B10B9C00F58053A34211D943F209
:1063300008031B68984218D8A4F5805323F0010580
:10634000421B5B0805F580516019FFF7A1FD0DB0F8
:1063500030BD800803224FF48053049001A8CDE99A
:1063600001230394FFF790FCF1E70E20EFE729DF0C
:10637000704728DF7047000037B50B460C465A6857
:1063800014F80C1BDD680092044A5B6952F8255032
:1063900002462046A84703B030BD00BF74950020D8
:1063A00038B5184C2378182202FB03431A795D692B
:1063B000012A03D0032A18D00F2015E0124A996948
:1063C00010689A68DB680003121AB2F5805F1D44FA
:1063D000014438BF9208284428BF4FF48062FFF779
:1063E000C6FF08B90123A37038BD4FF08053186968
:1063F000054B80B2B5FBF0F518682844FFF7B9FFEC
:10640000EFE700BF849500207C96002070B5134D07
:106410006C780A2C1FD02E783444E4B2092C84BF47
:106420000A3CE4B2182606FB0454A261207103C999
:10643000A360049BE360AB7804F1100282E80300E0
:1064400023B100206B7801336B7070BDFFF7A8FF9C
:106450001128F7D1F5E70420F7E700BF8495002065
:10646000F8B527498B780C462BB1002602288E7090
:1064700002D003283AD0F8BD0D78224A182101FB3A
:106480000541136889680133B1EB033F13601BD8E2
:1064900063781660013B63706B1CDBB2182704261F
:1064A000092B17FB056188BFA5F1090321440020D2
:1064B0002370FFF761FF07FB05430022C3E9046275
:1064C0001A719A609A61DA606378002BD3D0A3784E
:1064D000002BD0D1FFF764FF0028CCD01128CAD000
:1064E0002178182303FB0141043105E00B781822C1
:1064F00002FB031104310D20BDE8F840FFF73CBF5B
:10650000849500207C9600200D4A002313600D4ADC
:1065100004201380937002F1F00113719360936172
:10652000D360C2E9040318328A42F6D1064A1360E6
:10653000064A0020C2E90033C2E90233704700BFB7
:106540007C96002084950020789600207495002089
:10655000074A1368042B1FBF0B60591C1160054AC2
:106560001DBF016842F8231000201846704700BF85
:10657000789600207495002013B5CC180C43A4071E
:1065800008D1009313460A4601460120FFF73EFF5B
:1065900002B010BD1020FBE707B500220B460092A9
:1065A00001460320FFF732FF03B05DF804FBA8DFCC
:1065B0007047AADF7047ADDF7047AEDF7047B0DFCE
:1065C000704762DF704700002DE9F0470F4694B036
:1065D0000546002800F02E81002900F02B814B6831
:1065E000002B00F027814FF6FF730380924B04AA23
:1065F00003F1100C164618685968144603C4083392
:1066000063452246F7D114AB41F230520DF10A0135
:10661000304623F8482DFFF7D4FF0446002840F009
:1066200005812A1D19460120FFF7C1FF04460028F5
:1066300040F0FC809DF80A30AB7101461C220DA889
:10664000FDF770FE9DF834300E9443F004038DF88E
:10665000343001AEAB798DF80E30214641F2325321
:1066600003223046CDE91044CDE91244ADF80C3098
:10667000FDF758FE9DF8043064F3030364F3071339
:106680008DF804309DF805304FF0010A6AF30303DA
:106690006AF307138DF805309DF806306AF342035C
:1066A00064F3C30364F30413DBB243EA0A03214631
:1066B000142208A88DF806300DF10C08FDF732FE03
:1066C0004FF0140905F1080308AA0DA9A8880A9437
:1066D0000C94CDE90886ADF82C90FFF76AFF0446CC
:1066E000002840F0A38001461C220DA8FDF71AFEE9
:1066F0009DF834300E9443F018038DF83430AB79A4
:106700008DF80E30214641F2315303223046CDE957
:106710001044CDE91244ADF80C30FDF703FE9DF8AE
:10672000043064F3030364F307138DF804309DF819
:1067300005306AF303036AF307138DF805309DF8FB
:1067400006306AF3420364F3C303DBB243F0110380
:1067500021464A4608A88DF80630FDF7E3FD1723C9
:10676000ADF82C3008AA05F110030DA9A8880A94E9
:106770000C94CDE90886FFF71CFF0446002855D18C
:1067800001461C220DA8FDF7CDFD9DF834300E9476
:1067900043F002038DF83430AB798DF80E3021468A
:1067A00041F2345303223046CDE91044CDE912447E
:1067B000ADF80C30FDF7B6FD9DF804306AF3030325
:1067C0006AF307138DF804309DF8053064F3030372
:1067D00064F307138DF805309DF806306AF3420321
:1067E00064F3C30364F30413DBB243EA0A032146F0
:1067F0004A4608A88DF80630FDF794FD02230A9357
:10680000ADF82C3008AA05F120030DA9A8880C9733
:10681000CDE90886FFF7CDFE044638B97B68AB6248
:10682000BB6803B1EB62054B01221A70204614B01D
:10683000BDE8F0870E24F9E798AA0F0080960020A3
:1068400070B5054686B070B302884FF6FF739A4262
:106850002BD0174B1B7843B3164C1022080AE1705B
:10686000207121FA02F0090E072301266071A1713F
:1068700002A800216370ADF806302270A670FDF703
:1068800051FD2B8AADF808300023ADF80C3002A979
:106890000DF1060328888DF80A60CDE90434FFF76E
:1068A0008CFE06B070BD0E20FBE70820F9E700BFA4
:1068B000809600208196002030B5054687B060B3F1
:1068C00002884FF6FF739A4229D0164B1B7833B3D8
:1068D000154C112323700B0A6170A3700B0C090E69
:1068E000E370217105230021102202A8ADF80630C3
:1068F000FDF718FD2B8AADF8083001238DF80A301A
:106900000023ADF80C3002A90DF106032888CDE96B
:106910000434FFF752FE07B030BD0E20FBE708201D
:10692000F9E700BF809600208196002030B504462C
:1069300087B038B300884FF6FF73984224D0134BCA
:106940001B780BB3124D102369700321ADF80610AC
:10695000AA7000211A4602A82B70FDF7E3FC238AD7
:10696000ADF8083001238DF80A300023ADF80C3063
:1069700002A90DF106032088CDE90435FFF71DFEBD
:1069800007B030BD0E20FBE70820F9E78096002015
:106990008196002070B50D4688B0044640B139B1EB
:1069A000826A2AB10B88112B59D003D8102B43D0FF
:1069B00008B070BD502B42D0512BF9D18B79022BEE
:1069C000F6D10A89038A9A42F2D18B7B043B022BCF
:1069D000EED99DF8163043F001038DF816300B8A7E
:1069E000ADF818304B8AADF81A30022601F11403C5
:1069F0000822002101A807938DF81060FDF792FC92
:106A000001AAA18A20880196CDF808D0FFF7D3FD0E
:106A1000034638B3E36A03B1984740F2FD1304A973
:106A20002088ADF81430FFF7CAFD0028C0D0E36A13
:106A3000002BBDD09847BBE78B882380B8E7C98877
:106A400003899942B4D108238DF81030123535F8F6
:106A5000023C8DF81830059504A99047A8E74FF639
:106A6000FF73EAE79DF800202088D207D5D504A956
:106A7000ADF81430FFF7A3FD0028D8D1297D4B1EB7
:106A8000072B41D8DFE803F0041A2327292B3E2DDA
:106A900000238DF804306B8A012B05D806220121D2
:106AA0002046FFF743FFC0E7012315358DF80C3072
:106AB0000295A36A01A92046984779E76A8A0123CB
:106AC0009A428DF80430F0D806220221E8E702232A
:106AD0008DF80430EDE70323FAE70423F8E70523F4
:106AE000F6E76B8A022B02D803220821D8E7AA7D99
:106AF0006B7D43EA0223ADF808300BB90723E7E7C3
:106B00000623E5E70923E3E70322C9E7A8DF704787
:106B1000AADF70472DE9F04381468FB015469846AD
:106B20000E4611B9084600F0EBFC15B9284600F0F6
:106B3000E7FC1C220DEB02000021FDF7F3FB9DF8A2
:106B40001C30ADF80490002443F0020301272146D5
:106B5000032268468DF81C300894CDE90A44CDE93B
:106B60000C448DF80670FDF7DDFB98F800308DF8C9
:106B7000003098F801308DF801309DF8023067F34D
:106B8000420303F0E70364F300032146142202A842
:106B90008DF80230FDF7C6FB0A48CDF80CD001ABEA
:106BA000029302AA169B0088ADF8105007A9ADF811
:106BB0001240ADF814500696FFF7AAFF0FB0BDE8DB
:106BC000F08300BFC096002030B587B006A941F61B
:106BD0000A03044621F80C3D01205A4A8DF80E00A4
:106BE000FFF794FF0546002849D12288002A49D1A1
:106BF000228952B1544B0093E16804F13C0342F600
:106C00002420FFF787FF002847D1228A52B14F4B3B
:106C10000093616904F13C0342F62520FFF77AFFF7
:106C200000283AD1228B52B1494B0093E16904F11B
:106C30003C0342F62720FFF76DFF00282DD1228C60
:106C40004AB1444B0093616A04F13C0342F62620AA
:106C5000FFF760FF08BB228D4AB13F4B0093E16A0A
:106C600004F13C0342F62820FFF754FFA8B9236B38
:106C7000ABB9616B002938D1A36B002B42D12846F8
:106C800007B030BD354B0093616804F13C0342F618
:106C90002920FFF73FFF0028AAD00546EFE71A6832
:106CA0008DF810201A68120A8DF811205A888DF874
:106CB0001220DA788DF813205A688DF814209B681A
:106CC0008DF815301A0A1B0C8DF81730244B8DF8EF
:106CD00016200093082204F13C0304A942F6232065
:106CE000FFF718FF0028C4D0D7E71E4B0A7900939E
:106CF000096804F13C0342F62A20FFF70BFF002845
:106D0000BAD0CAE71A788DF810205A888DF8112069
:106D1000120A8DF812209A888DF81320120A8DF825
:106D20001420DB888DF815301B0A8DF816300E4BB9
:106D30000093072204F13C0304A942F65020FFF718
:106D4000E9FEAAE7C0960020A0960020B896002091
:106D50009096002088960020C296002098960020E9
:106D6000CA960020B0960020A8960020094A5378C1
:106D700091780133DBB2994208BF00231178994220
:106D80001FBF03705078182303FB002014BF04308A
:106D900000207047D4960020082910B5044602D080
:106DA000002000F0ADFBD4E90030BDE810401847EA
:106DB00073B5054602A8002400F8014D0E4600F008
:106DC000ADFB0DF10600FFF7D1FF90B106700A4B45
:106DD0009DF8062045605A709DF8070000F0C2FB40
:106DE00024B9064B4FF48012C3F80021204602B0AC
:106DF00070BD0424F0E700BFD496002000E100E05D
:106E0000204B21491A682F2300BF00BF00BF00BFDD
:106E100000BF00BF00BF00BF8A422FD000BF00BF2D
:106E200000BF00BF00BF00BF00BF00BF00BF00BF6A
:106E300000BF00BF00BF00BF00BF00BF00BF00BF5A
:106E400000BF00BF00BF00BF00BF00BF00BF00BF4A
:106E500000BF00BF00BF00BF00BF00BF00BF00BF3A
:106E600000BF00BF00BF00BF00BF00BF00BF00BF2A
:106E700000BF00BF00BF00BF00BF00BF013BC3D1C8
:106E8000704700BF448100200024F4000C4B0D48E3
:106E90004FF4003210B5C3F8802001244FF4803342
:106EA000C0F84833C0F808334460FFF7A9FF064B29
:106EB000846000201860FFF7A3FF044B187010BD1A
:106EC00000E100E000100140F0970020E197002071
:106ED0002DE9F3412549264B0025C1F84051C1F861
:106EE0004451C1F84851C1F84C51C1F80051C1F8A2
:106EF00004511B68002B34D0D1F804451D49DFF83C
:106F000088800968641A24F07F442F461A68A242D8
:106F100012D8A41A15441A7CDE6962B15A691F742A
:106F200000929B69019342460821684600F050FA9E
:106F300008B100F0E5FABEB90F4B104A1978137882
:106F40008B4205D10133DBB2022B08BF0023137043
:106F500012780B4B43F822500A4B4FF48012C3F8BF
:106F6000002102B0BDE8F0813346CFE700100140B8
:106F7000F4970020F0970020EC970020ED97002078
:106F8000E497002000E100E0996D0F002DE9F74F34
:106F9000A44AA54913780978A44C99423BD00133FF
:106FA000DBB2022B08BF00231370A1491278A14B5A
:106FB0000F6853F822003B1823F07F4300220B6038
:106FC000236815461646944613B942B1236006E07D
:106FD000196881420DD902B12360091A196001278D
:106FE0002368DFF8589201930026BDB9DFF858A254
:106FF00063E0401A0E44D968C3F800C0D3F81CE01F
:1070000031B1BA1922F07F42C3E90121DD611D4689
:1070100001227346D8E700252F46E1E72846ED69AF
:10702000834A43681268DFF824E2D0F808C0991A4E
:1070300021F07F41714500F2A98061440160012285
:10704000027422680023C0E90133C361002A40F0C2
:10705000A7802060C9E75A1C9AF80210D4F800B043
:10706000D2B291428AF8002004BF00228AF80020A0
:10707000182202FB03A31A799868022A73D0032A04
:1070800000F08180012A18D1017CB1B9DA68426030
:107090001A6982605A69C2609B698361664B1B787A
:1070A000002BBDD04160BBE7984200F09E8098461F
:1070B000DB69002BF8D1002303749AF800309AF8AA
:1070C00001209A42C7D1236826B9019A934201D17F
:1070D000002F42D0002B00F08580D3F80090574C51
:1070E000534BD4F804651868554F351A3B7825F092
:1070F0007F4503359BB94FF48033C4F84433C4F85B
:107100000433504B4FF400324FF00108C3F8802194
:107110001A60C4F80080FFF773FE87F80080A94565
:107120002CBF4844401920F07F40C4F84005D4F8F3
:1071300004359B1B23F07F43801B033320F07F40EB
:1071400083420AD9D4F80435C4F84035FFF758FE15
:107150003C4B4FF40032C3F80021374B00221A7029
:1071600003B0BDE8F08F5B46D846A2E78BF810204D
:10717000DBF81CB00123BBF1000FF7D1002B9CD032
:10718000C4F800B099E700231A46F4E7D31A23F0B5
:107190007F43634534BFACEB0303002303604EE73A
:1071A0000168136899421BD8591A1160C26150E7EF
:1071B000A1EB0C01D3F81CC01A46BCF1000F0AD099
:1071C0006346D3F800C08C45F2D3ACEB010CC3F896
:1071D00000C09C4613460160C0F81CC0D86104E79B
:1071E0001346EEE7FFF752FEB7E740450CD1DBF858
:1071F0001C30236043B90E490122C9F808200B60F6
:107200000D4B1A70FFF7FCFDC2690368C8F81C201B
:1072100012B111680B44136023689B4518BF012607
:1072200049E700BFEC970020ED970020F49700207D
:10723000F0970020E4970020E09700200010014024
:10724000E197002000E100E0D4960020FEFF7F00DF
:1072500008B5FFF71BFE104B00200B2218809A7018
:107260000E4B18600E4B18700E4B18700E4B4FF4EF
:107270008012E021C3F8802183F814131A6002F110
:107280008042A2F56F22C2F8080583F81113074B5C
:10729000D2F804251A6008BDD4960020F497002087
:1072A000EC970020ED97002000E100E0F09700202F
:1072B000074B9B784BB132B128B10368187C20B9D9
:1072C00059745A617047072070470820704700BF03
:1072D000D49600202DE9F7431D4FBB7805460E4696
:1072E00090469BB390B304292ED9436973B3437C72
:1072F00002A80024012B00F8014D0CBF8946A146CD
:1073000000F00CF90DF10600FFF730FDD0B10123BC
:107310000370104B4560D3F80435C0E90498C0E908
:1073200002369DF806307B709DF8070000F01AF9D0
:1073300024B9094B4FF48012C3F80021204603B052
:10734000BDE8F0830424EFE70724F7E70824F5E716
:10735000D49600200010014000E100E0064A927837
:107360003AB130B1426922B1002202740221FFF722
:107370001FBD0820704700BFD4960020014BD3F8F2
:10738000040570470010014012F0030310B511D13D
:10739000094C22604C1CE400A4B22244074C226039
:1073A000074A1370074A1370074A1080074A1846A5
:1073B000118010BD0720FCE700980020FC970020FA
:1073C000F8970020089800200498002006980020D4
:1073D0002DE9F3472B4D2B888B4206460C4617466A
:1073E0004BD302A84FF0000800F8018D00F096F88A
:1073F000254B264A18781178CBB2254909888B424B
:1074000038BF0133C0B238BF5FFA83F840452ED091
:1074100092F800801378DBB2994286BF0133DBB269
:10742000002313709DF8070000F09CF84FF6FF73DF
:10743000984524D0DFF860A0DAF800304FEAC80998
:1074400003EB090243F83870A6B19CB1114B2888B0
:107450001B68224608FB0030314602F058FEDAF87D
:1074600000304B4400209C8002B0BDE8F0874FF60E
:10747000FF78D7E700209080F6E70920F4E70420A2
:10748000F2E700BF0498002008980020F897002039
:1074900006980020FC97002000980020F8B5124CB8
:1074A000124D264622782B789A4200D1F8BD2378D7
:1074B0000F48104A078812680F48DBB219B202EB76
:1074C000C10C006852F83120BCF8041003FB07001F
:1074D00090470A4A23781288DBB29A4286BF01336A
:1074E000DBB200233370DDE708980020F897002016
:1074F0000498002000980020FC97002006980020A7
:107500001FB50021CDE9021001AA44F20100ADF837
:107510000410FCF741FF05B05DF804FB70B5EFF314
:10752000108672B60C4A946801239CB993600B4B89
:107530000B4DD3F8801029401160C3F88050D3F868
:10754000841051604FF0FF32C3F88420047006B9F4
:1075500062B670BD0370FAE77CBC002000E100E079
:10756000FC06FFBD10B5084B9A685AB150B9EFF34D
:10757000108172B6054A1C6814605C68546098609B
:1075800001B962B610BD00BF7CBC002000E100E084
:107590002AB113880144884204D1184670474FF637
:1075A000FF73F7E75BBA10F8012B9BB25A40C2F3A6
:1075B0000313534083EA03331BB25A0102F4FF5210
:1075C00053409BB2E7E70000064B074A00201870C3
:1075D000064B1A600422C3E90120C3E90300C3E992
:1075E00005007047099800200C9800207CA100201D
:1075F0000020704730B5F9B1124B5C6800220A6078
:10760000E4B1B0F5167F1BD8D8681D680130013C85
:10761000D86018695C604FF4177404FB00540C6068
:10762000012101FA00F49969013000F003002143BF
:1076300018619961104630BD0E20FCE70420FAE77E
:107640000C20F8E77CA10020F0B51D4B9A68A2B38E
:1076500059691E688D1A05F003052C464FF41777FB
:1076600007FB046C604512D1012101FA04F099690D
:1076700041409961002021465E68D3F818C04FF060
:10768000010E71440024164401F003010AE00134A4
:1076900004F00304A142E3D11020EDE74AB1013A1E
:1076A0000D4601240EFA05F515EA0C0FA6EB0207AC
:1076B000F4D00CB1C3E90172F0BD0420FCE700BFB7
:1076C0007CA10020064A13691268013B4FF4177130
:1076D00003F0030301FB0323C3F8580200207047A3
:1076E0007CA1002030B5C0B1B9B10E4BDA68B2B19F
:1076F000013ADA609A681D6801329A605A694FF45B
:10770000177404FB025404600132D4F85802086074
:1077100002F003025A61002030BD0E20FCE7042075
:10772000FAE700BF7CA100203FB40C49086890B183
:107730000B4B1C687CB10B4A1568CDE90250002345
:107740008DF804300B60136004AB13E90700234687
:1077500004B030BC184704B030BC7047A0A1002072
:10776000A4A10020B0A10020DC2810B509D0DD289C
:1077700010D0C02816D1FFF7D7FF0E4B0E4A1A6063
:1077800010BD0E4A0E4B19681368581C1060C022B9
:10779000CA54F2E7094A0A4B19681368581C10606A
:1077A000DB22F5E7064B054A196813685C1C146078
:1077B000C854E2E78880002009780F00A0A10020CB
:1077C000B0A10020C02802BF014B024A1A607047D6
:1077D0008880002009780F00014608B5002001F0DC
:1077E000CFFD00280CBF0420002008BD08B5DB2019
:1077F000FFF7F2FF10B9024B024A1A6008BD00BF42
:107800008C80002091780F00C02810B409D0DB28AC
:107810000BD0094B094A196813685C1C1460C854E2
:1078200006E05DF8044BFFF77FBF054B054A1A6081
:107830005DF8044B704700BFB0A10020A0A100205C
:107840008880002069770F0010B5064A064C126840
:107850002368D05CFFF7C0FF10B9236801332360B1
:1078600010BD00BFB4A10020A8A1002008B5C02011
:10787000FFF7B2FF28B9034B1B6813B9024B034A49
:107880001A6008BDA8A100208C80002049780F0054
:1078900010B50C4A0C4C12682368D35CC02B03D083
:1078A000DB2B0CD0042009E0DC20FFF795FF28B982
:1078B0002368064A01332360054B1A6010BDDD20A2
:1078C000F3E700BFB4A10020A8A1002049780F0071
:1078D0008C8000207FB5134C134D144E002001F016
:1078E0002FFDE8B1226852B129683368994206D267
:1078F000002001F02FFD0E4B1B689847EEE70D4B63
:107900001B686BB10292084A0221126803928DF83B
:10791000041004AA12E9070004B0BDE8704018473B
:1079200004B070BDB0A10020A0A100209CA1002047
:1079300088800020A4A10020014B1860002070471F
:10794000A4A10020034B1A780AB901221A70002062
:10795000704700BF98A10020014B002018707047AD
:1079600098A100202DE9F04F85B000284FD0294F75
:107970003B78012B07D0022B0CBF04250825284695
:1079800005B0BDE8F08F244C244A254E254DDFF884
:10799000A0A0DFF8A0B011600023236002233B7099
:1079A000214B30602B60914698462268D9F8003010
:1079B0009A4215D3C5F80080FFF758FF054608BB6B
:1079C0001A4B1B6801223A70E3B18DF8042032682B
:1079D00002922268039204AA12E907009847CEE7B0
:1079E000336822689A5CC02A03D022689B5CDB2B38
:1079F00004D12B68534508BFC5F800B02B689847E1
:107A0000042801D10025BAE71128CED1FAE71025C4
:107A1000B5E700BF98A10020A8A10020ACA10020DC
:107A2000B4A100208C8000206D780F00A4A100205C
:107A300049780F00ED770F00054B064A1860064B9A
:107A40001960064B00201860054B1A60704700BF94
:107A5000B0A10020C5770F009CA10020A0A10020AC
:107A600088800020064B07481B68DB00DBB2002241
:107A7000037004215B4242708270C370FFF772BFD3
:107A8000E0A10020B8A1002070B52D4C2D4E02467B
:107A900025462378012B14D002D3022B20D070BDB1
:107AA000002AFCD12848FFF759FC08B1FFF728FD50
:107AB000264B1B68002BF2D0254ABDE87040107899
:107AC0001847012AEBD13168224B06311868FFF7BD
:107AD00049FF08B1FFF714FD02232B700022D8E7FD
:107AE000022A19D0032A0ED0002AD8D11A4B1648E0
:107AF0001A6041F6E121FFF7EDFB0028CFD0BDE889
:107B00007040FFF7FDBC154A1368013303F007030B
:107B1000136000232370E1E70F4A1368052B0AD096
:107B200001331360074B19680A4B06311868BDE82A
:107B30007040FFF717BF064B01221A70E9E700BF3C
:107B400004A20020F8A10020BCA10020F4A1002084
:107B5000FCA100200CA2002000A20020E4A1002033
:107B6000F0B585B004AB03E907009DF804000328D5
:107B700078D8DFE800F00802A7AA012005B0BDE828
:107B8000F040FFF781BF039E564C032E40F28680E3
:107B9000029D6B7813F00F0269D00E2A7ED1042E5D
:107BA00059D02A78500656D5110654D51A44AB78C8
:107BB0001A44EB781A4412F0FF024CD1B71E394632
:107BC0002846FFF7E5FCEB195A78EB5D43EA022300
:107BD000984240D144492A780B6802F00702D8B293
:107BE00082422BD1013303F007030B60FFF73AFF0A
:107BF0003E4B012230461A70FFF764FD08B1FFF7D3
:107C00007FFC38494FF41670FFF7F4FC00285ED073
:107C1000042802D00020FFF773FC35480521FFF748
:107C20000BFF08B1FFF76CFC324B1B68002B56D0E2
:107C30004FF0000005B0BDE8F04018474FF4167152
:107C40002068FFF7F9FE08B1FFF75AFC05B0BDE860
:107C5000F040FFF707BF20684FF41671FFF7ECFE06
:107C600000283CD005B0BDE8F040FFF749BC2978BA
:107C7000AA780B441344EA78134413F0FF030DD1A0
:107C80001D4A12680132C1F3C20102F0070291429B
:107C900004D11A4A03201370FFF7F6FE25681DB1C0
:107CA0004FF416712846D9E70E494FF41670FFF7C6
:107CB000A1FC80B1042802D02846FFF721FC0C4823
:107CC0000521CBE705210A48C8E70320CAE7206859
:107CD0004FF41671A3E720684FF41671BEE705B0A4
:107CE000F0BD00BF08A20020E0A10020DCA1002020
:107CF000E8A10020F0A10020E4A10020FCA10020C8
:107D00000220FFF7C1BE0000074B10B50446186003
:107D10000648FFF711FE08B1FFF7F2FB002C0CBF7D
:107D20000E20002010BD00BFF0A10020617B0F00DD
:107D3000184A1948002310B51360184A1360184AEE
:107D40001360184A1370184A1370184B184A01210F
:107D50001960184B1960184B1970FFF7A9FA08B190
:107D6000032010BDFFF730FC0028FAD1FFF7EAFD31
:107D70000028F6D1114C4FF416702146FFF73AFC5B
:107D80000028EDD120684FF41671BDE81040FFF7D0
:107D900053BE00BF0CA20020A8AA0F00F8A100202B
:107DA00000A20020DCA1002004A20020E0A100200D
:107DB000017D0F00E4A10020FCA1002008A200200A
:107DC0000C4A08B5002313600B4A1360FFF710FC40
:107DD00008B1FFF795FBFFF7BFFD08B1FFF790FB78
:107DE0000648FFF7BBFA042802D10020FFF788FB02
:107DF000002008BDF4A10020F0A10020BCA10020BB
:107E000037B50D46044698B191B10A4B1978002256
:107E1000019259B101A91A70FFF764FC019B063B5E
:107E20002B8023680433236003B030BD0420FBE7BC
:107E30000E20F9E7DCA100200438FFF705BC4DDF78
:107E400070474EDF70474FDF704750DF704743DFAA
:107E5000704712DF7047000010B588B0044608A8CC
:107E6000002300F8193DFFF7F4FF9DF80730002BC1
:107E70003BD00120FFF7E5FF0120FFF7E0FF0120E5
:107E8000FFF7E1FF02A8FFF7E0FF029BDA0702D548
:107E9000002000F017FE029B9B0702D5022000F095
:107EA00011FE5CB11A4B2A229A720022DA72194B27
:107EB0001A79013A1A715A88173A5A804FF080534A
:107EC00015495A6E1B6E03A802F046F9134A0123A6
:107ED00003A9194411F8011C22F813100133112BC6
:107EE000F6D101F047FF08B010BD08A800F81C3D0E
:107EF000FCF774FE0A4B039303A8FCF797FEFCF70C
:107F00009FFE4FF08043D3F838340293BDE700BFA3
:107F10000E810020AC8000205CAB0F00208100208F
:107F2000C58A0F0008B5134AD2F800350BB30023F9
:107F3000C2F80435BFF36F8FBFF34F8F0E49802017
:107F4000C1F88400D2F80013C2F80813C2F8003553
:107F5000BFF36F8FBFF34F8FFFF779FF1846FFF71F
:107F600070FF1846FFF76BFF1846BDE80840FFF7A3
:107F70006ABF08BD0070024000E100E07047704732
:107F800010B50A781E2A1C4604D801239340064ADD
:107F9000134206D100232022052101F019FC2046BE
:107FA00010BD0024FBE700BF01000048F8B5069EA5
:107FB0000D461F4614466AB1094B1B68DB0700D506
:107FC00000BE4FF0FF300AE0284600F04FF80135C0
:107FD00004F50074B44207EB0401F5D32046F8BD64
:107FE000F0ED00E0F8B5069E0D461F460024B442B1
:107FF00007EB04010CD20022284600F0EBF8002821
:1080000002DC05D03046F8BD013504F50074EEE71A
:108010002046F8E713B50D4C236843B943F2080333
:108020001868FCF7F9FE28B94FF4807323602068C4
:1080300002B010BD01A8FDF781F8019B9B685A1E94
:10804000033288BF4FF40723F0E700BF34A30020BA
:1080500030B500232025934200DB30BD0C781CB1E5
:10806000C45401310133F6E7C554FBE72DE9F04173
:108070000C4606464FF4007200212046FCF752F9E8
:1080800066B93E224D49204602F041F8552384F856
:10809000FE31AA2384F8FF31BDE8F081402E32D8AA
:1080A000751E1F2D88BFA6F121050DB32D026FF09F
:1080B000010305F5807603FB0544032D05F1010757
:1080C00012D9FFF7A7FFC0F316200330A8420BD345
:1080D000FFF7A0FFC0F316200330A84214BFBBB2C5
:1080E0004FF6FF7324F81530B7423D46E5D1D3E78C
:1080F000F023237004F109022346FF219A42D5D0D0
:1081000003F8011FFAE7442E23D8412EC4D10B22D5
:108110002B492C4F2046FFF79BFF2823E3720025B5
:10812000B8462E01BB192034D86870B102F034F87B
:10813000AB1CE06163830B2208EB0601204601358E
:10814000FFF786FF032DECD1A6E7FFF763FF4000A2
:10815000EEE7A6F14502012A0DD81A4B03EB0213F4
:10816000DD68284602F018F8294602462046BDE898
:10817000F04101F0CCBF06F219210902B1F52D2F13
:108180008AD2114B236003F1144303F52C1303F639
:10819000023363600D4BC4F8FC314FF40763A361F5
:1081A0004FF40053473E4FF48072A360084B666162
:1081B000E1602261E36104F12000D8E767AB0F00C2
:1081C00092AB0F0020AC0F005546320A306FB10A57
:1081D0004028A5AD30B53B4B0A689A4289B00D46A0
:1081E0006DD103F114434A6803F52C1303F60233EF
:1081F0009A4264D1D1F8FC21334B9A425FD18B680B
:108200009A045CD5C969314A914258D1DB0712D42E
:108210002A69B2F5807F0ED8E86810F0FF0F0AD106
:10822000B0F5183F07D31318B3F52D2F03D805F178
:108230002001FCF7EFFBAB691BB94FF4007009B0EC
:1082400030BD234C2268934207D040F6D3018B42C5
:1082500000D80AB14FF0FF3323606B6940F6D302B8
:108260009342EAD803F0070104EBD30301228A40CA
:10827000197AD2B2114204D160680A4301301A72ED
:108280006060D4E900329A42D7D3FCF799FB2568A5
:10829000002003ACFCF788FB142200212046FCF7E9
:1082A00041F800238DF80C30ADF80E302D02079BFD
:1082B0000695009394E80F00FCF7CCFDBDE74FF066
:1082C000FF30BCE75546320A306FB10A4028A5ADF1
:1082D00010A20020054B1B68082B01BF044B186837
:1082E000B0FA80F0400918BF00207047300100103C
:1082F0003401001008B54FF080430022C3F80C2170
:10830000C3F81021C3F838254FF0805203F54043DD
:10831000D2F80414C3F82015D2F80814C3F82415B1
:10832000D2F80C14C3F82815D2F81014C3F82C1581
:10833000D2F81414C3F83015D2F81814C3F8341551
:10834000D2F81C14C3F84015D2F82014C3F8441511
:10835000D2F82414C3F84815D2F82814C3F84C15E1
:10836000D2F82C14C3F85015D2F83014C3F85415B1
:10837000D2F83414C3F86015D2F83814C3F8641571
:10838000D2F83C14C3F86815D2F84014C3F86C1541
:10839000D2F84424C3F87025FFF79CFF10B1384B86
:1083A000384A1A60FFF796FF18B1374BFB22C3F823
:1083B0001825FFF78FFF48B13449354B0A681B6811
:1083C00022F00F0203F00F0313430B60FFF782FF4D
:1083D00018B1304B4FF400721A604FF08043D3F85D
:1083E0000024D20744BF6FF00102C3F800242A4AD8
:1083F000D2F8883043F47003C2F88830BFF34F8F4F
:10840000BFF36F8F4FF01023D3F80022002A03DB55
:10841000D3F80432002B2FDA204B0122C3F80425B5
:10842000D3F80024002AFBD04FF010221221C2F80A
:108430000012D3F80024002AFBD04FF010231222A0
:10844000C3F80422154B1A46D3F800140029FBD0B8
:108450000021C3F80415D2F80034002BFBD0BFF381
:108460004F8F0D490E4BCA6802F4E0621343CB6094
:10847000BFF34F8F00BFFDE70A4B0B4A1A6008BDE0
:108480008C5600404881030000F00040E40E00409C
:10849000580200104096024000ED00E000E001406C
:1084A0000400FA05448100200090D003024B1B68B1
:1084B000DB0700D500BE7047F0ED00E00D4B93F8F0
:1084C000B420014662B10C4A5268C2F308021AB1E4
:1084D00001220A4800F020BF93F8B420002AFBD103
:1084E000012283F8B4200A60BFF36F8FBFF34F8F70
:1084F000704700BF88BC002000ED00E0BD840F0085
:1085000038B5134D134BEA88AC88297AA41AA4B263
:10851000402C28BF40242A6889B9C3F800270122CB
:10852000C3F80447DA64BFF36F8FBFF34F8F2B6834
:1085300023442B60EB881C44A4B2EC8038BDC3F804
:1085400000260548C3F80446FFF7B8FFEFE700BF71
:1085500088BC0020007002400470024038B5104A08
:1085600000F59473451E52F823400E4B182101FB71
:108570000535142303FB0023E968C3F80017E4B2B0
:10858000C3F80447084B03EB8000FFF797FFEB6845
:108590002344EB606B8A1C44A4B26C8238BD00BFDC
:1085A0000070024088BC00202870024010B4114BBB
:1085B000411E182202FB0131CA8B8B8B8C699B1ADE
:1085C00091F820209BB2934228BF134614224243C5
:1085D00002F1804202F51C32C2F80046C2F80436AD
:1085E00023448B61044B5DF8044B03EB8000FFF7E1
:1085F00065BF00BF88BC0020047002400022114605
:10860000930003F1804303F51C330132082A5960BB
:108610009962F5D1034B04485962B822996400214C
:10862000FBF780BE0070024088BC0020012070472C
:108630007047704738B51D460B4C43B1A3800023EB
:10864000E38022602172FFF75BFF012038BD0748FD
:10865000FFF734FF94F8B43013B9FFF727FFF4E7BE
:1086600084F8B450F1E700BF88BC0020507002408D
:1086700010B58878097900F07F035A1E18245443F6
:10868000C0090C2202FB0044104A22441175012249
:1086900002FA03F40E4970B90C339A40C1F804236E
:1086A000D1F814352343C1F81435BFF36F8FBFF3EE
:1086B0004F8F012010BD02339A40C1F80423D1F836
:1086C00010352343C1F81035EFE700BF88BC002008
:1086D0000070024001F07F0070B5441E182666430A
:1086E000C909104D0C2404FB01642C44238200238F
:1086F000E260638291B935446B7D03F0FF021BB1E8
:10870000FFF72CFF012070BD00F59470064B43F875
:108710002020BFF36F8FBFF34F8FF3E7FFF746FFC4
:10872000F0E700BF88BC00200070024091B1CA0988
:1087300001F07F03084A0BBF03F5887303F58473C8
:1087400002EB830352F8230008BF5868003018BFBB
:10875000012070470846704700700240064B31B94F
:1087600001225A65BFF36F8FBFF34F8F704741F4FB
:108770008071C3F81815F5E70070024031B1044B61
:10878000C3F81815BFF36F8FBFF34F8F704700BF4B
:108790000070024089B101F07F00431E1820584349
:1087A000C9090C2303FB0101054B1944488A098AB6
:1087B000814294BF0020012070470846704700BFE7
:1087C00088BC00202DE9F743904B914ED3F800036D
:1087D00000231C4601251F4605FA03F101420CD077
:1087E0009A199200D2F800C0BCF1000F05D00C43DA
:1087F0001760BFF36F8FBFF34F8F0133192BEBD18E
:10880000E60705D5FFF7FAFE0121002000F0E2FCA3
:10881000804B23403BB1804B93F8B420002A40F0BA
:10882000C780FFF743FE250224D5784BD3F8802478
:108830008DF80020D3F884248DF80120D3F8882403
:108840008DF80220D3F88C248DF80320D3F89024DF
:108850008DF80420D3F894248DF80520D3F89824BB
:108860008DF80620D3F89C348DF807306946002037
:1088700000F0CCFC600507D5674B1A7A002A40F05F
:108880009B806648FFF71AFEE10407D5624BDA8841
:108890009988914240F29E80FFF732FE5B4F5E4E18
:1088A0000D250122AA40A5F10C032242D9B226D0FF
:1088B000142000FB0373A5F10D02D3F80807182359
:1088C00003FB026E03FB0563A3F592784FF0000CE7
:1088D0008EF815C098F80080C0B28045A3F5947357
:1088E0007FD1BEF81200B3F800E0864579D905F5CE
:1088F0008E7347F823C0BFF36F8FBFF34F8F0135DF
:10890000142DCED1E2014AD5404ED6F86C74C6F88B
:108910006C74BFF36F8FBFF34F8F0125DFF8F880C2
:10892000A94609FA05F33B42E8B216D018216B1E9E
:10893000142201FB038302FB0562D2F80426B3F87C
:108940001EC0624492B2DA8301FB0582B3F81EC0F6
:108950009288624550D9FFF729FE0135082DE0D1F4
:10896000DFF8B480112501264FF0180906FA05F347
:10897000A5F110003B42C0B20ED0A5F1110309FBD6
:1089800005F209FB0383A2F5C472598A32F8082064
:108990008A4239D9FFF7E2FD0135182DE6D1A3024D
:1089A00003D50321002000F015FC03B0BDE8F083DF
:1089B000002283F8B42036E7DA889988914202D9F8
:1089C000FFF79EFD60E70021DA880846012300F0EA
:1089D00039FC59E70021DA880846012300F032FC0F
:1089E0005CE7182000FB0262508A1880528A01233B
:1089F000002000F027FC82E7DA8B40F080010123A1
:108A0000002000F01FFCA8E75E75C5E7007002407B
:108A1000409C0010FCFB1F0088BC00202870024016
:108A20000C4B1B78082B12D10B4B186810F00F0061
:108A30000DD104331B6803F0F003202B08D1074B42
:108A40001B6813F0F00F0CBF0120002070470020BE
:108A5000704700BFE00F00F0E40F00F0EC0F00F0F3
:108A600042DF704743DF704744DF704712DF7047D3
:108A700007B502A8002300F8013DFFF7F7FF9DF8B6
:108A80000700003018BF012003B05DF804FB07B5F4
:108A9000FFF7EEFF48B101A8FFF7E6FF01980030AD
:108AA00018BF012003B05DF804FB4FF08043D3F8FA
:108AB0000C0400F00110A0F1011358425841F1E7F5
:108AC00001207047012813B5024600F0A18056D35B
:108AD000022852D1604BD3F800241205FBD54FF485
:108AE0000062C3F80024BFF36F8FBFF34F8F5B4B5F
:108AF00000211960BFF36F8FBFF34F8F584A106882
:108B000003F58E2303F2144300287CD149F275311A
:108B1000116018601160FFF783FF40B11068514B7E
:108B2000002872D149F275311160186011604B4B09
:108B300040F2E3721A60043340221A60BFF36F8F71
:108B4000BFF34F8FA3F604038021474AC3F81C15D7
:108B5000C3F80423454AE02082F82703C2F88411B1
:108B600051601A46FFF793FF0028FBD00123C2F89B
:108B70000435BFF36F8FBFF34F8F02B010BD364B7C
:108B8000D3F80025002AF8D14FF40062C3F800247E
:108B9000BFF36F8FBFF34F8FFFF742FF304B40B1F2
:108BA0001868304A032108BB49F27530186011601B
:108BB000186018682E4AC021D0B949F27530186083
:108BC00011601860244B0122C3F80025BFF36F8F9A
:108BD000BFF34F8FFFF75BFF0028CED1FFF748FFB1
:108BE00040B102B0BDE81040FFF73ABF1160E0E7C6
:108BF0001160E7E71F4B18601B680193019B4FF062
:108C000080431A60B9E7196085E700221A608EE791
:108C1000114BD3F800150029AFD00021C3F804157B
:108C2000BFF36F8FBFF34F8F10488024C0F884408C
:108C3000D3F80003C3F80803C3F80015BFF36F8F20
:108C4000BFF34F8FFFF714FF20B102B0BDE8104013
:108C5000FFF708BF084BD4E70070024000780240DD
:108C600000EC064014ED06400514C00100E100E0F0
:108C700014EC06400001004004000040036833B1DA
:108C8000838823B1C088003018BF01207047184680
:108C90007047C3809DF80030837300230381016017
:108CA000438182808381704770B504460E46FFF78A
:108CB000E5FF0546B8B123899BB2B3B1E2882368CA
:108CC000A189304602FB013101F021FAA389A18874
:108CD0005A1C92FBF1F301FB13239BB2A38123895E
:108CE000013B9BB22381284670BD1D46FBE7F8B5CA
:108CF00006460F46FFF7C2FFA8B13489A4B284B17B
:108D00003589954228BF15467DB100243946304645
:108D1000FFF7CAFF28B10134A4B2F388AC421F4464
:108D2000F4D12046F8BD0446FBE72C46F9E70000E5
:108D300038B50446FFF7A2FF054660B12389A28833
:108D40009A420AD1A37B43B9124A156815F001056E
:108D500001D000BE1D46284638BDE28823686089E0
:108D600002FB003001F0D3F96389A1885A1C92FB01
:108D7000F1F301FB13239BB263812389994215BF51
:108D80002389638901339BB216BF9BB2A3812381E0
:108D9000E1E700BFF0ED00E0002303814381838120
:108DA0007047000038B50D4C0546212200212046B1
:108DB000FBF7B8FA1022FF21601CFBF7B3FA102270
:108DC000FF2104F11100FBF7ADFA284600F046FB45
:108DD0002846BDE8384000F00FBD00BF3EA300208C
:108DE000C1F1010100231A46C9B2FFF723BC0000FC
:108DF00010B50B4C0020FFF719FC2046FFF7CCFF05
:108E0000084B1C60084B01225A80084A00241C8031
:108E1000136000F0F9FA00F0E7FC204610BD00BF37
:108E20004881002060A3002064A3002040BE0020F1
:108E30002DE9F04FA84B85B019880193002940F027
:108E40004581A64B1A88B2F58A7F9A4610D0B2F5B2
:108E50008C7F20D0002A40F0B3810C220021A04852
:108E6000FBF760FAFBF7BCFC4FF48A73AAF80030FA
:108E70009C4B186803899BB2002B00F02781984C0B
:108E80002146FFF711FF6378012B40F06C814FF40E
:108E90008C73AAF80030DFF85082914EB8F80010B9
:108EA0003478B1F5B47F354647465FD008D871B104
:108EB00040F25F13994259D08B4B00221A80CCE7C5
:108EC000B1F5C17F00F0F380B1F5C97FF3E73379E5
:108ED00013F07F0940F0DC807379062B52D1F388C0
:108EE0001A0A022A18D0032A1BD0012A29D17F4B43
:108EF0001B68196801B312236E899E4228BF1E4663
:108F0000FEB1B6F5807F21D9794B1B68D90700D512
:108F100000BE00233B80A0E7744B1B6859684B8858
:108F2000EAE7744A9189DBB299420AD9926852F809
:108F3000231031B10B78DFE76D4B1B68D80700D5E4
:108F400000BE00212046FFF709FCB5E732466A481B
:108F500001F0DDF82979684A3346C9092046FFF750
:108F600069FBFBF73DFC40F25F133B80634B1A68E3
:108F700013889BB2002B00F0A9801388013B9BB2A1
:108F8000138030E0082B12D101225D495A4801F0CC
:108F9000BEF83179584A0123C9092046FFF74AFB38
:108FA000FBF71EFC4FF4B473A8F80030DEE7052B86
:108FB00004D1B1792046FFF73BFB7DE7092BC0D1F7
:108FC000B6794F4F31462046FFF733FB474B3E7093
:108FD0001B68D3F80480B8F1000F0AD1444B1B681A
:108FE000DA0700D500BE2979C9092046FFF7F8FE47
:108FF00062E7B8F80230009308F10906BB46009B0F
:1090000043449E4202D3FEF7B9FFECE773780B2B83
:1090100002D133781E44F2E7042BDFD17379022B9F
:1090200004D0082BDAD14FF0010901E04FF000091C
:10903000B3783B445A78FF2AD0D104AA314983F847
:109040000190002322F8023D1C2303FB0913204654
:109050009B68314698470028C0D1BDF80E100829FA
:10906000BCD933465A78052A0AD193F802C04FEA90
:10907000DC120BEBC2020CF07F0C624482F8119000
:109080001A78104480B281421344EBD80E44B6E7FC
:1090900003F01F03012B39D1327A194B13445B784B
:1090A000012B3FF64FAF4FF4C173A8F800302A7A76
:1090B000134B1344134A5B781C2101FB0323204606
:1090C000DB68114998470C287FF4F6AE019A00231B
:1090D000138005B0BDE8F08F38A300203AA300202C
:1090E00068A3002060A300203CA30020588100203A
:1090F000F0ED00E09080002040BD002040BE002048
:109100003EA30020CCAC0F006CA30020B9F1020FED
:109110007FF418AF7379B3B9317A2046FFF706FBB5
:1091200004A94A4621F8020D264800F0F0FF3179E3
:10913000244A4B46C9092046FFF77CFAFBF750FB4F
:109140004FF4C97330E7012B05D1317A2046FFF780
:1091500015FB317948E7032B7FF4F4AE317A2046D2
:10916000FFF7FCFAF5E7022B15D12179164BC80958
:1091700001F07F0203EBC00313445B7C012B3FF63D
:109180006CAE124A1C2000FB032362791D69207813
:10919000A368A84761E6032B3FF45FAE042B06D11A
:1091A0006368002B3FF459AEA068984755E6084B1A
:1091B0001B68DB0700D500BE0023AAF8003085E756
:1091C000198083E740BD00203EA30020CCAC0F00F7
:1091D000F0ED00E0012908B502D002290CD008BD4D
:1091E000FFF7E0FD074B1A68002353819381138139
:1091F000054A12681380F2E7FFF7D4FDFEF7BFFEC1
:10920000EDE700BF60A3002040BE00201FB5002393
:109210000822CDF80630CDF80A30ADF80E308DF8C2
:10922000040001230DEB02008DF8053000F06FFF04
:10923000034B01A91868FFF77BFD05B05DF804FB3F
:1092400060A300201FB51C4691B94AB1154B19689F
:109250000B884A889A4203D90A88013292B20A805E
:1092600024B9114B1B68DB0700D500BE04B010BD4C
:109270000023CDF80630ADF80A30002C4FF0020381
:109280008DF8053018BF01238DF80930074B8DF894
:1092900004008DF808101868039201A9FFF748FD33
:1092A000DEE700BF40BE0020F0ED00E060A300203C
:1092B0002DE9F843089D07460C469046994602263C
:1092C0006378052B04D1E17801F00301414508D012
:1092D000104B1B68DA0700D500BE1C2018E00126E1
:1092E000EEE721463846FFF7C3F930B9094B1B6852
:1092F000DB0700D500BE20200AE0A178CB0914BF0F
:10930000297089F800102178012E0C44E7D1002043
:10931000BDE8F883F0ED00E01FB5002301930423BE
:10932000CDE902018DF805300DEB0301034B186800
:10933000FFF7FEFC05B05DF804FB00BF60A3002052
:10934000034A4FF40B6303FB0020008B704700BF00
:1093500074A3002007B5094A4FF40B6303FB0020F8
:109360000DF107011030FFF79FFC20B19DF80700B9
:1093700003B05DF804FBFF20FAE700BF74A30020F0
:1093800007B502AA4FF40B6302F8011D044903FB61
:10939000001020301146FFF7CBFC03B05DF804FB52
:1093A00074A300202DE9F041154F4FF40B644443A2
:1093B0003E190020B178FFF7EDF9804610B100208A
:1093C000BDE8F08104F507653D4404F1200040222A
:1093D00029463844FFF78BFC034608B90120EFE724
:1093E0003279D207EBD52A46B1784046FFF772F9B9
:1093F0000028F3D1034B1B68DB07E0D500BEDFE795
:1094000074A30020F0ED00E073B5134C4FF40B6231
:1094100000212046FAF786FFFF2363714FF4E13302
:109420000125A36008230026A37304F130012B4615
:1094300004F1100000954FF48062A681FFF729FC2B
:1094400000962B464FF4806204F5866104F12000FB
:10945000FFF71FFC02B070BD74A3002010B5084CCC
:10946000052200212046FAF75DFF04F11000FFF706
:1094700093FC04F12000BDE81040FFF78DBC00BF55
:1094800074A30020F7B58B79022B064615465CD1F4
:10949000CB79002B5BD0073BDBB2F72B57D92F4F93
:1094A000BB78002B57D18B783B700C7809230C4488
:1094B00013806378242B0DD0052B1AD1214630461A
:1094C000FFF7D6F868B9264B1B68D90700D500BE50
:1094D000202027E023782A8813442B8023781C44FB
:1094E000E7E7A3787B7023782A8813442B802378BE
:1094F0001C446378042B1AD163790A2B17D1237883
:109500002A8813442B802178164B009302220133C2
:1095100021443046FFF7CCFE30B1114B1B68DA070F
:1095200000D500BE03B0F0BD2B880E332B80402346
:109530000D4AF9783046FFF7CDF850B9084B1B6853
:10954000DB0700D500BE2120ECE71520EAE7162056
:10955000E8E70020E6E700231B70FFDE74A300208D
:10956000F0ED00E076A30020A4AB0020F8B5324E69
:10957000358807460C4635B140F21F139D421AD07C
:1095800000203080F8BD097801F06003202B4ED117
:109590006378A3F12002012A2CD8E388ABB1072B12
:1095A00028BF0723254AC909FFF744F8FBF718F934
:1095B00040F21F133380224B1A6813889BB2002B92
:1095C00037D01388013B9BB2138021780023C1F36D
:1095D000C0111A4681F001013846FFF72BF8637875
:1095E000202BCDD1174B002BCAD014490020AFF34C
:1095F0000080C5E7222B16D1C1F3C0112B462A46A5
:1096000081F00101FFF716F80F4B62881A710F4BBA
:10961000002BB5D061882846C1F3400201F001015A
:10962000AFF30080ACE72946FFF798F8A8E71E20C3
:10963000A8E70C20A6E700BF24AC00207CA30020F4
:1096400040BE00200000000074A3002000000000C5
:109650002DE9F0471C4CE2788A42804602D0002077
:10966000BDE8F0876779DFF870A003F503664FF473
:10967000036504F11009B54216D1144B2BB1238BAD
:109680009BB213B10020FEF725F94023104AE17880
:109690004046FFF71FF80028E1D10E4B1B68DB079F
:1096A00000D500BE2120DBE761194846FFF740FBEB
:1096B000BAF1000F06D0635DBB4203D139460020EA
:1096C000AFF300800135D6E774A30020D5780F00F2
:1096D000A4AB0020F0ED00E00000000008B50B494D
:1096E0008A6B8B6891F82F109B1AB3F5805F28BFA7
:1096F0004FF480539BB2064AFEF7ECFF20B9054BAE
:109700001B68DB0700D500BE08BD00BF28BC0020D9
:1097100028AC0020F0ED00E0F0B52A4C85B0022224
:1097200004F11601064603A8A56800F0F0FCBDF898
:109730000C2052BA92B204F11101B5FBF2F503A864
:10974000042200F0E4FCA76BA3680399607BDB1B99
:10975000B3F5805F28BF4FF48053AAB209BAB7FBB4
:10976000F2F5009302FB15722944174BFEF71EFC1D
:10977000021E94F82E1011DAA368A26B9B1AA36242
:10978000012384F82C3042F20503A38730460023DE
:1097900084F83E30FEF7E2FF05B0F0BD04D10123AE
:1097A0003046FFF74FFDF7E793B23046064AFEF723
:1097B00091FF0028F0D1054B1B68DB07ECD500BEFC
:1097C000EAE700BF28BC002028AC0020F0ED00E054
:1097D000044880F83C1080F83D2080F83E3001209D
:1097E000704700BF28BC0020402200210148FAF742
:1097F00099BD00BF28BC0020402200210148FAF793
:1098000091BD00BF28BC00202DE9F3418B79062BC8
:1098100007460D4690462ED1CB79502B2BD1174EB3
:10982000097806F12E030093022206F12F03294442
:10983000FFF73EFD044640B1114B1B68DA0700D527
:1098400000BE204602B0BDE8F081AB7886F82D302E
:109850001723A8F8003032461F2396F82F103846F9
:10986000FEF738FF0028ECD1054B1B68DB0700D55D
:1098700000BE2124E5E71824E3E700BF28BC002050
:10988000F0ED00E070B5234C238806460D4623B169
:10989000BB2B26D00020208070BD097801F060022B
:1098A000202A06D01C4B1B68DB0700D500BE1E20FB
:1098B000F2E76A78FF2A07D1C1F3C0111A4681F096
:1098C0000101FEF7B7FEE5E7FE2A1CD1134A13702B
:1098D00029780123C909FEF7ADFEFAF781FFBB2302
:1098E00023800F4B1A6813889BB283B11388013B06
:1098F0009BB2138029780023C1F3C0111A4681F06E
:1099000001013046DDE71946FEF728FFC2E70C20CB
:10991000C2E700BF68BC0020F0ED00E040BD0020C1
:1099200040BE0020F0B5C37B1A2B8BB00D466ED025
:1099300006D8032B75D0122B29D04FF0FF300FE043
:10994000232B0FD0252BF8D1494A92E8030001AB15
:1099500083E8030008221946284600F0D8FB0820B7
:109960000BB0F0BD00230193ADF80C3008238DF847
:109970000730404B02930C22022301A928468DF8A0
:109980000C30ADF80E3000F0C2FB0C20E8E73A4C8A
:109990000023CDE901338023206861688DF805300C
:1099A00002238DF806308DF8073005AA03AB03C3F8
:1099B000174604F10903113418685968164603C69E
:1099C0000833A3423246F7D118681B7933710AACC9
:1099D00000233060ADF821308DF82330274B44F858
:1099E000043D0822244903A800F0DEFB102224498C
:1099F000384600F0D9FB04222249204600F0D4FB6F
:109A0000242201A9284600F082FB2420A8E70AA905
:109A1000032341F8243D0422284600F078FB04206B
:109A20009EE7194C1222002101A8FAF77BFCF023D3
:109A300094F83C208DF804300A238DF80B304FF059
:109A4000000362F303038DF8063094F83D308DF87F
:109A50001030122294F83E308DF8113001A92846BA
:109A600000F055FB0023A38784F83E30122077E7EF
:109A700004AD0F0000001F400CAD0F00312E300070
:109A800025AD0F0036AD0F0028BC00202DE9FF41A9
:109A9000AE4C94F83070064690461D468FB1012FAB
:109AA00000F0978094F83030022B0ED194F82E10ED
:109AB0003046FEF73BFE002800F00B810123002218
:109AC000F3E094F82F308B4201D000204EE0012AC1
:109AD00005D11F2D03D122689D4B9A4206D09D4B84
